:020000040800F2
:10000000182B0020A1010008EB2F0008472D000845
:10001000E92F00082D100008BD3D00080000000079
:10002000000000000000000000000000ED340008A7
:100030002F100008000000000D300008EF34000809
:10004000BB010008BB010008BB010008BB010008A0
:10005000BB010008BB01000831100008BB0100080B
:10006000BB010008371000083D100008BB01000864
:10007000BB010008BB010008BB010008BB01000870
:10008000BB010008BB010008BB010008BB01000860
:10009000BB010008BB010008BB01000843100008B9
:1000A000BB010008E9350008BB010008BB010008DE
:1000B000BB0100080000000000000000BB010008B8
:1000C000BB0100080000000000000000BB010008A8
:1000D00000000000213B00082D3B0008000000004C
:1000E000BB010008BB010008000000000000000088
:1000F0000000000000000000000000000000000000
:10010000000000000000000000000000BB0100082B
:100110000000000000000000F5350008013600086E
:10012000BB010008BB010008BB010008BB010008BF
:10013000BB010008000000000000000000000000FB
:10014000BB010008BB010008BB010008BB0100089F
:10015000BB010008BB010008BB010008BB0100088F
:10016000BB010008BB010008BB0100080000000043
:10017000BB010008BB0100080000000000000000F7
:10018000BB010008BB010008BB010008DFF80CD070
:1001900000F050FD00480047E95D0008182B0020E2
:1001A0000648804706480047FEE7FEE7FEE7FEE711
:1001B000FEE7FEE7FEE7FEE7FEE7FEE7A5350008FF
:1001C0008D0100082DE9F05F0546002092469B4610
:1001D00088460646814640241BE02846414647465D
:1001E000224600F0E0FB53465A46C01A914110D314
:1001F00011461846224600F0C7FB2D1A67EB01088E
:100200004F4622460120002100F0BEFB17EB0009FB
:100210004E41201EA4F10104DFDC484631462A4647
:10022000434600F000B830BCBDE8C09F40EA01037F
:100230009B0703D009E008C9121F08C0042AFAD29C
:1002400003E011F8013B00F8013B521EF9D2704760
:10025000421C10F8011B0029FBD1801A704710B511
:10026000002200E0521C835C8C5CA34201D1002B75
:10027000F8D1D8B2E1B2401A10BD00000FB400B5F9
:100280008DB010A909900B9000914FF0FF300A90AB
:1002900000200C9005480690054807906A4609A87A
:1002A0000F9900F0A5FB0DB05DF814FB0D0A0008D6
:1002B0002B0A00082DE9FF5F1D464FF0FF3BD5E9F3
:1002C000014691465F464FF00008A9697F1C0198DE
:1002D0008847296A824688470028F6D1BAF1FF3F4D
:1002E0000CD024F4C064002E19DD600614D5BAF1D8
:1002F0002B0F09D0BAF12D0F0ED103E0584604B0F0
:1003000000F07EB844F48064A9697F1C0198884796
:10031000761E8246002E02DDBAF1300F03D0B9F10D
:10032000000F26D032E0A969761E44F400747F1CC9
:10033000019888478246002E05DDBAF1780F06D075
:10034000BAF1580F03D0B9F1000F10D01EE0B9F187
:10035000000F02D0B9F1100F18D1A969761E24F44C
:1003600000747F1C019888478246102002E0082014
:1003700000E00A20814609E008FB0908A969761E09
:1003800044F400747F1C019888478246002E05DDE6
:100390004946504600F017FB0028EDDAE96901985C
:1003A0008847A00502D46FF00100A8E7E00725D137
:1003B000600613D5600502D5C8F1000000E0404694
:1003C00029680A1D2A600968220501D5087015E010
:1003D000220701D5088011E008600FE02868011DA0
:1003E00029600068210502D580F8008006E0210719
:1003F00002D5A0F8008001E0C0F8008038467EE712
:1004000030BCBDE8C09F2DE9FF5FD2E901A74FF0E6
:100410000008916999461446DDF838B046460198BF
:100420008847054659EA0B0005D009E0A169761C0A
:10043000019888470546216A284688470028F5D153
:10044000681C03D05FEACA7005D015E04FF0FF309A
:1004500004B000F048B82068011D2160D0F8008089
:100460000AE05FEACA7001D108F8015BA169761C55
:100470007F1E019888470546002F1ADD681C18D09A
:10048000B9F1000F0DD0E81705EBD060421120F054
:100490001F0059F822102A1A012090400142E0D191
:1004A00007E0BBF1000FDCD1216A2846884700280D
:1004B000D7D0E16901988847BBF1000F07D1002E22
:1004C00005DD5FEACA7002D1002188F80010A0683B
:1004D000B84203DDBBF1000F03D017B16FF001008C
:1004E000B6E73046B4E730BCBDE8C09F2DE9FF4F0A
:1004F000087883B09946FF2805D0491C2D2804D0E0
:100500000024002008E000200BE00124F9E700EBC4
:10051000800003EB4000491C0B78FF2BF7D104B19E
:10052000404200230293147819461D462D2C01D019
:100530002B2C04D1521C2D2C13D000240294AA463B
:100540001478FF2C0FD00A25A3FB057801FB058149
:100550004FF0000C03FB0C11521CE3194AEB010194
:10056000EEE70124EAE7814453EA010002D019F5DD
:10057000C87F06DA03980021C0E9001107B000F037
:1005800065B90025AE4E2F46DFF8B882184600F058
:1005900029FBCDE90001B9F1000002DAC9F100043C
:1005A00000E004460023A74A1AEB030B42EB045A6F
:1005B00012E0E00707D02A4633463846414600F0AD
:1005C00048F9074688462A4633461046194600F041
:1005D00040F905460E466410002CEAD1DDE9000121
:1005E000B9F1000F5A46534606DA00F08CFA3A4643
:1005F000434600F088FA05E000F02BF93A464346FE
:1006000000F027F9029A0AB181F00041039AC2E989
:100610000001B3E72DE9FF4F1F468DB0D7E9014632
:100620004FF0FF382E2045464FF000090B90B96976
:100630006D1C0E988847396A824688470028F6D193
:10064000BAF1FF3F0AD024F4D064002E11DDBAF1D4
:100650002B0F08D0BAF12D0F0BD102E0404611B09C
:100660008DE744F48064B9696D1C0E988847824612
:10067000761E6946600501D52D2000E02B208DF8FF
:10068000000001F1010B0DF1200809E0B9696D1CB2
:100690000E98884782460F9844F40074761E0560D1
:1006A000002E02DDBAF1300FF0D00B998A453ED111
:1006B00044F0800406E00F99681CA9F1010944F494
:1006C00000740860B9696D1C761E0E9888478246D2
:1006D0003028F0D02BE00B998A4505D1200603D4B1
:1006E00044F08004761E18E0504603F08CFB08B3FB
:1006F0000DF11301761E44F400748B4508D2AAF163
:1007000030000BF8010B200607D5A9F1010003E02A
:10071000200602D409F101008146A00502D50F99F7
:10072000681C0860B9696D1C0E9888478246002EC7
:10073000D1DC53E0002E51DDBAF1650F02D0BAF1E1
:10074000450F4BD1A00549D5B9696D1C24F44074FF
:10075000761E0E9888478246002E0CDD2B2804D08A
:10076000BAF12D0F07D144F48074B9696D1C0E984D
:1007700088478246761EE00501D52D2100E02B2119
:1007800008F8011BCDF82C8021E00DF12901761E1F
:1007900044F4007488450CD2AAF1300010F0FF0038
:1007A00088F8000002D10B99884509D908F10108A1
:1007B00006E0E00501D5244801E042F20F708146D1
:1007C000B9696D1C0E98884782460F980560002E07
:1007D00004DD504603F017FB0028D6D1F9690E98C6
:1007E0008847FF208BF8000088F800000020069062
:1007F00007904B466A4608A906A8FFF777FEA005B2
:1008000002D46FF001002AE714F0240F0AD0E007A9
:1008100014D1DDE906123868031D3B600068C0E9A9
:1008200000120BE0DDE9060100F0E8F90146E007FF
:1008300004D13868021D3A600068016028460EE75E
:10084000000014400000F03FF1D8FFFF30BCBDE8CD
:10085000C08F2DE9FE4F81EA030404F0004421F02B
:10086000004100944FF0000B23F0004350EA0104D4
:100870005ED052EA03045BD0C3F30A54C1F30A55B5
:100880002C44A4F2F3340194A0FB0254C1F31301ED
:1008900041F48011C3F3130343F4801301FB0244BA
:1008A00000FB034E840A970A44EA815447EA8357BF
:1008B000A4FB076802958D0A05FB07854FEA932C78
:1008C00004FB0C542705029D4FEA065847EA1637E9
:1008D000B5EB08056EEB070C870E920E47EA811701
:1008E00042EA8312A7FB0201B6EB0B0164EB0004A2
:1008F0002B0D43EA0C335E1844EB1C50DA4651468C
:10090000E7FB0201C5F313044FEA0B3343EA145328
:100910004FEA0432019C43EA0603A4F10C0402945A
:10092000009CCDE900B400F0A0F803B000F003B8DB
:1009300000200146F9E730BCBDE8C08F0EB540F29B
:10094000334102910021CDE900110A460B4600F027
:100950008CF803B000BDC1F30A5210B5C1F3130106
:1009600040F2FF3341F480119A4201DA002010BDB9
:1009700040F233439A42A2F2334203DC524200F087
:1009800012F810BD904010BD202A04DB203A00FA76
:1009900002F1002070479140C2F1200320FA03F3D6
:1009A000194390407047202A04DB203A21FA02F0D4
:1009B0000021704721FA02F3D040C2F12002914099
:1009C0000843194670473A2800D2303820F02002F8
:1009D000412A01D3A2F13700884201D34FF0FF3002
:1009E0007047000002681144137801601846704790
:1009F000D16004495161044911620021116111461D
:100A000000F030B9E5090008590C0008426842B10D
:100A1000016811F8013B23B1521EC0E900121846CB
:100A200070470121C160881E704742685AB1C3688F
:100A3000016843B983688B4205D0491E521CC0E946
:100A40000012002070474FF0FF30704710B5141EA1
:100A500073F1000408DA401C41F1000192185B4177
:100A60001A4301D120F0010010BD2DE9F04D92464E
:100A70009B4611B1B1FA81F202E0B0FA80F2203265
:100A80009046FFF781FF04460F4640EA0A0041EA1C
:100A90000B0153465A46084313D0114653EA01004E
:100AA00019D0C8F140025046FFF77DFF05460E46BB
:100AB000504659464246FFF767FF084305D00120DC
:100AC00004E020463946BDE8F08D0020054346EAA3
:100AD000E0762C4337430A986305E40AA0EB08004C
:100AE0000022FD0A44EA47540A3002D5002001469C
:100AF000E9E7010510196941DDE908450019694177
:100B0000BDE8F04DA2E72DE9F04D81EA030404F0C1
:100B1000004B21F0004514464FF0000A23F000413D
:100B200050EA050220D054EA01021DD0C5F30A574D
:100B30000246C5F31303C1F31300C1F30A5640F490
:100B4000801543F48013A7EB0608101BD64608F265
:100B5000FD3873EB050002D308F1010801E092189B
:100B60005B41B8F1000F03DA00200146BDE8F08DCB
:100B700000204FF48011064684460EE0171B73EBED
:100B8000050705D3121B63EB050306434CEA010C72
:100B900049084FEA300092185B4150EA0107EDD155
:100BA00052EA030012D082EA040083EA05010843F6
:100BB00005D0101BAB4106D20122002306E0002223
:100BC0004FF0004302E06FF0010253101AEB0600F1
:100BD0004CEB085110EB0A0041EB0B01BDE8F04D66
:100BE000FFF734BF0EB540F2334202920022CDE946
:100BF00000221346FFF739FF03B000BD01F00043A8
:100C000030B421F0004150EA010206D00A0DA2F5ED
:100C10006072C1F31301002A02DC30BC002070476F
:100C2000440F44EAC104C100E01830BC00EBC250DC
:100C300000F0B1B9064C074D06E0E06840F0010352
:100C400094E8070098471034AC42F6D3FFF7A2FAB5
:100C500098830008B8830008C0B24FF4F05100F048
:100C6000D1B900002DE9F34F8BB04FF0000801F12E
:100C70000C000C464FF0010B46460DF1080A01909E
:100C80006269012101989047051E2DD0252D2CD099
:100C9000216A8847C0B16269012101989047216AA1
:100CA00088470028F7D1411E62690198904700E00B
:100CB000761CA1690B988847216A88470028F7D1DC
:100CC000E1690B988847DBE7A1690B9888470746DD
:100CD000A84201D1761CD3E7E1690B9888477F1CB5
:100CE00002D1B8F1000F6FD046E1002762693D469E
:100CF0003946019890472A2804D162690121019858
:100D000090470125DFF8849262690121019890479C
:100D1000A0F130010A290AD24F45E5DC07EB870133
:100D200000EB4107303FDFD445F01005ECE7E90662
:100D300001D46FF000476C280AD04C2814D06828E2
:100D400015D06A280DD074281CD07A281AD01DE03E
:100D500062690121019890476C2802D045F0040592
:100D600014E045F002050DE045F020050AE0626957
:100D7000012101989047682802D045F0080505E058
:100D800045F400656269012101989047C4E9015763
:100D900065283DD019DC58287AD00CDC452837D09E
:100DA00004DC252826D0412831D131E046282FD037
:100DB00047282CD12CE05B2877D0612828D06328E5
:100DC0007CD0642823D15AE0D0E06F2848D008DCDA
:100DD00066281DD067281BD0692821D06E2816D11F
:100DE00027E0702845D0732868D0752847D0782828
:100DF0000DD14DE0A1690B988847054625283FF4A1
:100E000069AFE1690B9888476D1C3FF46AAFB3E0A6
:100E100023466A466FF001000B99FFF7FBFB9EE04B
:100E200045F040006060A80723464FF0000236D42A
:100E30003EE0E8077FF447AF2068011D21600068AD
:100E4000290501D506701BE7290701D5068017E79C
:100E5000A90703D5F117C0E9006111E706600FE7A4
:100E600045F040006060A80723464FF0080216D402
:100E70001EE040F60E0125EA0100606016E045F034
:100E800040006060A80723464FF00A0207D40FE035
:100E900045F040006060A80708D5234610226FF097
:100EA00001000B99AFF3008059E007E023461022C0
:100EB0006FF001000B99FFF7FDF950E04FF00009CA
:100EC0004F464B46632802D05B2806D040E0E80638
:100ED00001D40120A06001273AE062690121019854
:100EE00090475E2805D14FF0010962694946019893
:100EF0009047216939B900210A46534643F8212019
:100F0000491C0829FADBB0B3216969B9C11700EBA4
:100F1000D16253110AEB830122F01F02821A0120D1
:100F20000B68904003430B60626901210198904770
:100F30005D28E8D1B9F1000F09D00020514651F8E1
:100F40002020D24341F82020401C0828F7DB02ABC8
:100F5000224600976FF001000B99FFF754FA002822
:100F60000CDA401C08D1BBF1000F05D04FF0FF3068
:100F70000DB000F00DB8FFE74046F9E7E90701D1F1
:100F800008F1010806444FF0000B79E6CCCCCC0CFC
:100F900030BCBDE8C08F0029A8BF7047401C490085
:100FA00008BF20F00100704710B4B0FA80FC00FACE
:100FB0000CF050EA010404BF10BC704749B1CCF1F9
:100FC000200421FA04F411FA0CF118BF0121214385
:100FD0000843A3EB0C01CB1D4FEA00614FEA102040
:100FE00042BF002010BC704700EBC35010440029E2
:100FF000A4BF10BC7047401C490008BF20F001008E
:1010000010BC70477F2801D9002208E0064A02EB95
:101010005002C007127800D1120902F00F0201201D
:10102000904008407047000058830008FEE7704772
:10103000012000F05BB9082000F058B9102000F042
:1010400055B9202000F052B9002200F001B800008C
:1010500030B50E4B054601205C7A002C14D1587A2D
:101060001C54587A03EB800045605D7A03F1080058
:101070002A54587A421C5A72303008703A2048700C
:101080002F208870CC70002030BD00000827002081
:1010900010B590F825100024022903D00421C16363
:1010A00001241AE001680A6822F00E020A60016851
:1010B0000A6822F001020A6090F84410036C01F003
:1010C0001C02012101FA02F25A6080F82510002169
:1010D00080F82410816B01B18847204610BD70B59F
:1010E000044600F0DDF90546601C00D0641C00F0E9
:1010F000D7F9401BA042FAD370BD000070B500259F
:101100000126754C0246082817D06420102A33D0D7
:101110002146202A89793ED0012A7DD120790028D4
:101120007BD000202071658528466571002975D027
:1011300005F070FAC820A071FEE7208A04F01AFEBC
:10114000A0822582217889B1E18A638B42181A44F2
:101150000323B2FBF3F222836183E08260780128EB
:101160005AD1208BBDE8704005F03EB9E082608323
:10117000401C20832670F1E7A17851B10021A170B5
:101180006179491CC9B261716085022944D203208A
:101190009EE00121F3E7E279032A76D3E278002A80
:1011A00076D00022E2706685657100296FD04A4BC7
:1011B000A0710A335A1E511EE08C04F0C5FC464D46
:1011C000607A3835A5F12E036871207AA8715A1E0D
:1011D000511E208D193504F0B7FC607A05F80A0C11
:1011E000207AA5F1470305F8090C5A1E511E208CE0
:1011F00004F0AAFCA07A2870607A6870207AA5F1C1
:101200004703A8705A1E511E608C04F09DFCA07A02
:10121000A872607AE87202E056E056E057E0207A61
:10122000A5F1470328735A1E511E608C04F08CFCF4
:10123000A07A2875607A6875207AA5F14703A875A9
:101240005A1E511EA08B04F07FFCA07AA877607A0A
:10125000E877207AA5F1470385F820005A1E511E31
:10126000E08B04F071FCA07A85F82800607A85F89C
:101270002900207A85F82A000A2218A11A4803F0CA
:1012800009FD38B16520A071FEE71BE000E017E022
:10129000012287E7104B6422303303F10801124822
:1012A00003F04DFEE072216B01B100B1FEE70E4884
:1012B00003F0B0FC6720A071608D05F0ABF9FEE78C
:1012C000022005E0521CE27170BD01202AE70120D6
:1012D000BDE8704005F042BA180000207472333344
:1012E0002E74787400000000D0130020044910B55B
:1012F0000A68024202D00860FFF700FF10BD00003C
:10130000140401402DE9F84FDFF870B100230127E4
:101310004FF0030A4FF00F090BF1040EA7E000BFD6
:1013200007FA03F6324070D04C68022C01D0122C20
:1013300010D1DC0800EB8408D8F820405D074FEAA4
:10134000D56C09FA0CF5AC430D6905FA0CF525438B
:10135000C8F82050D0F800805D0091F804C00AFA67
:1013600005F40CF0030C28EA04080CFA05FC4CEA1E
:10137000080CC0F800C0D1F804C0BCF1010F08D0BF
:10138000BCF1020F05D0BCF1110F02D0BCF1120F5D
:1013900016D1D0F808C0D1F80C802CEA040C08FA59
:1013A00005F848EA0C08C0F80880D0F804C02CEA18
:1013B000060C0E79C6F300169E4046EA0C064660FF
:1013C000C668A6438C68AC403443C4604C68E400F3
:1013D0004CD52B4C256E45F001052566246E23F077
:1013E000030504F001040094264C2E19B4689D07EF
:1013F0004FEA157C09FA0CF5AC43B0F1904F05D0DB
:10140000214DA84204D1012508E02FE0002505E088
:101410001E4DA84201D1022500E0072505FA0CF572
:101420002543B560DBF800405D464E689443F60303
:1014300000D514432C60DEF8004075464E68944396
:10144000B60300D514432C600C4D08352C684E684B
:101450009443F60200D514432C60084D0C352C68DB
:101460004E689443B60200D514432C605B1C0A6896
:1014700032FA03F47FF454AF00F00AB800040140DC
:10148000001002400000014000040048000800482D
:1014900018BCBDE8E08F0AB1816170478162704776
:1014A0000148006870470000D4000020024801682D
:1014B000491C016070470000D400002010B50024D2
:1014C000032000F08FF8002000F008F808B1012494
:1014D00001E000F01BF8204610BD000070B5054685
:1014E00009484FF47A7100240068B0FBF1F001F074
:1014F00018F808B1012404E000222946501E00F02B
:1015000051F8204670BD0000D80000201E4808B5E4
:10151000016E41F001010166016E01F001010091CF
:10152000816D41F080518165806D00F080500090A8
:10153000032000F057F8002211466FF00B0000F076
:1015400031F8002211466FF00A0000F02BF800225B
:1015500011466FF0090000F025F800221146501FD7
:1015600000F020F800221146101F00F01BF80022A6
:101570001146901E00F016F80022BDE80840114602
:10158000501E00F00FB800000010024000F01F02D3
:10159000012191404009800000F1E020C0F80011D5
:1015A00070470000F0B40E4B1B680C46C3F30223D7
:1015B000C3F10705042D00D90425191D072901D2FF
:1015C000002300E0DB1E012606FA05F1491E21403A
:1015D00099409E40761E16403143F0BC01F006BD96
:1015E0000CED00E0064900F0070208684FF6FF0323
:1015F000184040EA0220034A104308607047000088
:101600000CED00E00000FA051649B0F5007F08680F
:10161000C0F3412009D0022805D0086820F4C0603A
:1016200040F480600860002070470128FBD0086803
:1016300020F4C06040F4007008600B48322200685B
:1016400050430A4AB0FBF2F0401C00E0401E4A69D9
:10165000520501D50028F9D148694005E3D503209A
:101660007047000000700040D800002040420F008A
:101670000248006800F4C06070470000007000403D
:101680000248016841F480710160704700700040B9
:101690000248016841F004010160704700100240F7
:1016A0002DE9F84F0446002700889C4D3E46000572
:1016B00015D5E06B60B1B0F5000F04D0B0F5400F68
:1016C0002BD001270AE0E86840F48030E86024E08D
:1016D0000021201D01F09CFC07001ED03E46206822
:1016E000800338D5A86D4FF00008C00009D4A86D5C
:1016F00040F08050A865A86D4FF0010800F08050C0
:101700000090DFF81CA2DAF8001041F48071CAF8EA
:101710000010FFF7C5FE814610E0D5F88800E16BA8
:1017200020F440000843C5F88800D8E7FFF7B8FE6A
:10173000A0EB0900022801D9032704E0DAF8000031
:10174000C005F3D5EFB33E46B8F1000F03D0A86D46
:1017500020F08050A8652078C00707D0D5F8880011
:10176000216A20F003000843C5F88800207880072C
:1017700007D5D5F88800616A20F00C000843C5F849
:1017800088002078800607D5D5F88800A16A20F463
:1017900040600843C5F888002088800507D5D5F843
:1017A0008800616B20F440200843C5F88800208839
:1017B000400509D5D5F88800A16B20F440100843F6
:1017C00000E02EE0C5F888002078400607D5D5F85F
:1017D0008800E16A20F440500843C5F8880020885A
:1017E000C00507D5D5F88800216B20F440300843A8
:1017F000C5F8880020884FF0006780044FF08068AB
:101800004ED5D5F88800216C20F040600843C5F81B
:101810008800206CB8423BD1E86840F48010E86052
:101820003EE0D5F8900010F4407014D0216D814254
:1018300011D0D5F89000D5F8901020F4407041F404
:101840008031C5F89010D5F8901021F48031C5F89A
:101850009010C5F89000C00711D0FFF721FE074691
:1018600041F2883907E000BFFFF71AFEC11B494566
:1018700001D9032668E7D5F890008007F4D5D5F89C
:101880009000216D20F440700843C5F890005BE79C
:10189000404505D10121201D01F0BAFB00B10646EB
:1018A0002068400317D5D5F88800616C20F04060AF
:1018B0000843C5F88800606CB84204D1E86840F479
:1018C0008010E86007E0404505D10121201D01F0AE
:1018D0009FFB00B106462088400411D5D5F888004A
:1018E000A16C20F040500843C5F88800A06CB0F10E
:1018F000805F05D10221201D01F08AFB00B1064660
:101900002088000406D555F8880FE16C20F080404F
:1019100008432860304600F005B80000001002407F
:101920000070004018BCBDE8E08F00002DE9F047D2
:101930000F46050058D03F4E306800F00700B8420F
:1019400009D2306820F0070038433060306800F07A
:101950000700B84248D12878374CC0072CD06868B7
:10196000032811D0022812D0216898B14905002916
:101970003ADAA16821F003010143A160FFF790FD6D
:10198000804641F2883910E021688901EFE721683B
:101990008903ECE78907EAE7FFF782FDA0EB08017E
:1019A000494502D90320BDE8F087A068696800F0C6
:1019B0000C00B0EB810FEFD12878800705D5A06827
:1019C000A96820F0F0000843A060306800F007002C
:1019D000B8420BD9306820F00700384330603068D7
:1019E00000F00700B84201D00120DCE7287840076A
:1019F00005D5A068E96820F4E0600843A060287875
:101A0000000706D5A068296920F4605040EAC100AB
:101A1000A06000F041F8A168084AC1F30311515CCD
:101A200001F01F01C84006490860BDE8F0470020EA
:101A3000FFF754BD0020024000100240B87E0008AD
:101A4000D80000200148006870470000D80000203E
:101A50000548064900688968054AC1F30221515CBE
:101A600001F01F01C8407047D8000020001002405C
:101A7000F87E00080548064900688968054AC1F3F0
:101A8000C221515C01F01F01C8407047D8000020FE
:101A900000100240F87E000870B525490023184662
:101AA0008A68CC6812F00C0204F00306214C4FEA5D
:101AB000640509D00C2A05D0042A26D0082A00D1B2
:101AC000284670BD012E10D10B681B0704D4D1F835
:101AD0009430C3F3032302E00B68C3F30313164EE1
:101AE00056F823307AB10C2AEBD1C86800F0030213
:101AF000C868C0F30210401C022A08D0032A09D08B
:101B0000B3FBF0F008E0184670BD204670BDB4FB92
:101B1000F0F001E0B5FBF0F0CA68C968C2F3062234
:101B20005043C1F34161491C4900B0FBF1F070BD65
:101B3000001002400024F400C87E00082DE9F8439C
:101B400005007CD0FD4CA06800F00C06E06800F0B9
:101B500003072878C00662D576B10C2E01D1012F7B
:101B60000AD0A8690028206878D040F001002060E1
:101B7000FFF796FC804659E02068800702D5A869E7
:101B80000028DED0296A2068000703D5206800F00D
:101B9000F00004E0D4F89400F02202EA1010814230
:101BA00016D9084601F0CAFA002848D1206840F04A
:101BB000080020602068296A20F0F00008432060B7
:101BC0006068E96920F47F4040EA0120606015E028
:101BD000206840F0080020602068296A20F0F000AA
:101BE000084320606068E96920F47F4040EA0120F2
:101BF0006060286A01F0A2FA0028D6D1FFF74CFFF6
:101C0000A168CF4AC1F30311515C01F01F01C84024
:101C1000CC4908600020FFF761FC00287ED12EE04F
:101C2000FFF73EFCA0EB0800022878D82068800768
:101C3000F6D5206840F008002060206801E0BBE095
:101C40000CE0296A20F0F000084320606068E96930
:101C500020F47F4040EA0120606010E020F00100A5
:101C60002060FFF71DFC804606E000BFFFF718FC70
:101C7000A0EB08000228D8D820688007F6D428787E
:101C8000C00740D0082E18D00C2E01D1032F14D03D
:101C90006868B0F5803F17D0B0F5A02F206817D046
:101CA00020F480302060206820F480202060686864
:101CB000E0B1FFF7F5FB804614E02068800322D5F1
:101CC0006868002878D01EE0206840F48030EDE796
:101CD00040F480202060F7E7FFF7E2FBA0EB08006C
:101CE0006428A2D820688003F6D50CE0FFF7D8FB63
:101CF000804605E0FFF7D4FBA0EB0800642894D8E9
:101D000020688003F6D4287880073BD5042E11D0B4
:101D10000C2E01D1022F0DD0E86801E05EE1B8E0A1
:101D2000002820681ED040F480702060FFF7B8FBC8
:101D300007460CE0206840050CD5E8680028C1D0B3
:101D400008E000BFFFF7ACFBC01B022893D8206857
:101D50004005F7D56068297C20F0F85040EA016022
:101D600060600FE020F480702060FFF799FB074669
:101D700005E000BFFFF794FBC01B0228B1D8206824
:101D80004005F7D42878000729D568690028D4F8D9
:101D9000940012D040F00100C4F89400FFF780FBDB
:101DA000074604E0FFF77CFBC01B022871D8D4F87B
:101DB00094008007F6D512E017E120F00100C4F886
:101DC0009400FFF76DFB074605E000BFFFF768FBD7
:101DD000C01B02285DD8D4F894008007F6D4287878
:101DE000400766D5A06D0027C00008D4A06D40F064
:101DF0008050A065A06D012700F0805000905248EF
:101E00000168C90512D40168814641F480710160FE
:101E1000FFF746FB804605E0FFF742FBA0EB08001A
:101E2000022836D8D9F80000C005F5D5A8680128E1
:101E300016D00528D4F8900017D020F00100C4F87F
:101E40009000D4F8900020F0040000BFC4F8900087
:101E5000A86841F28839C0B1FFF722FB80460FE045
:101E6000D4F8900040F00100F0E740F00400C4F81E
:101E70009000F5E7FFF714FBA0EB0801494508D8EF
:101E8000D4F890008007F5D50EE0FFF709FB8046F7
:101E900006E07CE0FFF704FBA0EB0801494576D89B
:101EA000D4F890008007F5D41FB1A06D20F08050C9
:101EB000A0652878800628D5686A0028D4F898009C
:101EC00012D040F00100C4F89800FFF7E9FA074685
:101ED00005E000BFFFF7E4FAC01B02287DD8D4F864
:101EE00098008007F6D510E020F00100C4F89800B3
:101EF000FFF7D6FA074604E0FFF7D2FAC01B022824
:101F00006BD8D4F898008007F6D4A86AF0B30C2EEA
:101F10006BD00228206820F08070206018D02068E4
:101F2000000103D4E06820F00300E060E0680749A6
:101F30000840E060FFF7B4FA054651E000100240A7
:101F4000B87E0008D800002000700040FFFFEEFEC1
:101F5000FFF7A6FA064604E0FFF7A2FA801B022864
:101F60003BD820688001F7D4286B55F82C1F00015E
:101F700010380843298A1E4A490802EB4151AA68D1
:101F800041EA02210843297D490801E02BE024E0D1
:101F90004FF07E4202EB41610843297B40EAC16079
:101FA000E060206840F080702060E06840F0807061
:101FB000E060FFF775FA054605E000BFFFF770FA2D
:101FC000401B022809D820688001F7D50BE000BF2C
:101FD000FFF766FA401B022802D90320BDE8F88308
:101FE00020688001F4D40020F8E70120F6E7000023
:101FF0000000E0FF2DE9F041040005D00025A562B6
:1020000094F85D0018B107E00120BDE8F08184F884
:102010005C50204600F044F8022384F85D302068CC
:10202000016821F040010160E0684FF4E066B042D1
:1020300001D9002101E04FF48051B0F5706F02D05A
:10204000B04200D0A562276B012227B9B04201D966
:10205000236300E02263D4E901031843D4E9043682
:1020600033431843238B03F400731843E369184385
:10207000236A1843A36A184323681860636B606A75
:10208000A66918430427E36807EA16463343184352
:10209000084321684860256684F85D200020B4E785
:1020A00030B51A4D0468002119480222032387B075
:1020B000AC4212D1046E44F480540466006ECDE943
:1020C000021300F480500590C220CDE900020520E3
:1020D000049069464FF0904013E00E4DAC4212D18F
:1020E000846D44F400448465806DCDE9021300F4EE
:1020F000004005902820CDE90002062004906946A2
:102100000548FFF7FFF807B030BD00000030014080
:1021100000100240003C0040000400482DE9F84F48
:10212000044690F85C0000271D46164689460128A3
:102130000DD04FF0010B84F85CB0FFF7B1F9804689
:1021400094F85D00BA46012804D002279FE00220DF
:1021500000F0A3B8B9F1000F6FD0002E6DD00320AE
:1021600084F85D00C4F860A0C4F83890A687E687BC
:10217000C4F840A0A4F844A0A4F846A0C4F850A015
:10218000C4F84CA0A068B0F5004F04D120680168E5
:1021900041F48041016020680168490603D4016868
:1021A00041F040010160E068B0F5E06F606823D95C
:1021B00008B1012E1CD1A06B21680088C86006E020
:1021C00020688168890709D5A16B0988C160A06B67
:1021D000801CA063E08F401EE08709E0FFF760F9F4
:1021E000A0EB0800A84202D3681C01D046E0ADB3C2
:1021F000E08F0028E4D136E008B1012E30D1E08F25
:102200000128A06B03D921680088C8600FE021680D
:102210000078087314E0E08722E02068816889076D
:1022200014D5E18F0129A16B08D90988C160A06B81
:10223000801CA063E08F801EEDE727E00978017322
:10224000A06B401CA063E08F401EE4E7FFF728F975
:10225000A0EB0800A84202D3681C01D00EE06DB1CB
:10226000E08F0028D9D142462946204601F053F894
:1022700008B120202066A06810B105E0032706E021
:102280002068C16880680090206E00B1012784F842
:102290005DB084F85CA038465AE718BCBDE8E08F12
:1022A0002DE9F05F044690F85C0000270A9E1D4669
:1022B00092468B464FF0010901280ED0012084F888
:1022C0005C00FFF7EDF8804694F85D006168012836
:1022D0000CD0B1F5827F07D102E0022000F011B9E5
:1022E000A16809B9042801D0022700E1BBF1000F61
:1022F00024D0BAF1000F21D005B394F85D00042872
:1023000002D0052084F85D0000202066C4F840A0BB
:10231000A4F84650A4F84450C4F838B0E587A5871F
:10232000E0642065E0684FF4E061884201D8012D47
:1023300006D92068426822F4805205E00127D6E0E1
:102340002068426842F48052426020680268520667
:1023500003D4026842F040020260E068884260688C
:1023600045D908B1012D3AD1A06B21680088C86019
:10237000A06B801CA063E08F401EE0872FE02068E8
:10238000816889070FD5E18F69B1B9F1010F0AD1D1
:10239000A16B0988C160A06B801CA063E08F401E08
:1023A000E0874FF0000920688168C9070FD0B4F8B2
:1023B000461061B1C068216C0880206C801C2064CC
:1023C000B4F84600401EA4F846004FF00109FFF79C
:1023D00067F8A0EB0800B04201D3701C75D1E08F04
:1023E0000028CCD1B4F846000028C8D176E008B166
:1023F000012D6CD1E08F0128A06B08D921680088DD
:10240000C860A06B801CA063E08F801E07E021687D
:1024100000780873A06B401CA063E08F401EE0872B
:1024200055E02068816889071AD5E18FC1B1B9F1FB
:10243000010F15D1E18F0129A16B07D90988C1606E
:10244000A06B801CA063E08F801E06E009780173FA
:10245000A06B401CA063E08F401EE0874FF0000996
:1024600020688168C90728D0B4F8461029B3B4F8A9
:102470004610012914D9C068216C0880206C801C8A
:102480002064B4F84600801EA4F84600B4F8460064
:10249000012810D82068416841F4805141600AE069
:1024A000007B216C0870206C401C2064B4F846004E
:1024B000401EA4F846004FF00109FEF7F1FFA0EB23
:1024C0000800B04202D3701C01D018E0BEB1E08F0A
:1024D0000028A6D1B4F846000028A2D142463146D1
:1024E000204600F018FF10B10127202020660120AF
:1024F00084F85D00002084F85C003846EEE603278F
:10250000F5E730BCBDE8C09F4FF0E0210428086922
:1025100003D020F004000861704740F00400FAE79F
:10252000704710B5401EB0F1807F01D3012010BD6F
:102530004FF0E02460610F21601700F057FD00208C
:10254000A06107202061002010BD10B5FFF7E8FF53
:1025500010BD70477047704770B590F83C20012A55
:1025600021D0012480F83C40022280F83D200368FD
:102570005A689D680D4EB34203D122F470064A6832
:10258000324322F070060A688968324325F08005DC
:1025900029435A600268916080F83D40002180F82C
:1025A0003C10084670BD022070BD0000002C0140A8
:1025B00010B5040003D094F83D0010B107E00120ED
:1025C00010BD002084F83C00204600F00DF80220E9
:1025D00084F83D00211D206801F018F8012084F8DE
:1025E0003D00002010BD000008B51E4A01681E48CD
:1025F00091420ED1816D41F010018165806D002204
:1026000000F01000009011463620FEF7CBFF362078
:1026100022E0164A91420ED1816D41F02001816580
:10262000806D002200F02000009011463720FEF758
:10263000B9FF372010E00E4A914211D1016E41F4EA
:1026400000310166006E002200F400300090114657
:102650001920FEF7A7FF1920BDE80840FEF796BF36
:1026600008BD0000001000400010024000140040AF
:10267000004401400168CA6842F00102CA60006873
:10268000826807490A40062A08D082680A40B2F5E3
:10269000803F03D0016841F00101016000207047D4
:1026A00007000100704770B50446006801694FF0EB
:1026B0000005C943890715D4C168C943890711D4E6
:1026C000E91E01610120207720688069800720468B
:1026D00002D0FFF7E7FF04E000F0A7F8204600F083
:1026E000A5F8257720680169C943490717D4C1684F
:1026F000C943490713D46FF0040101610220207718
:102700002068806910F4407F204602D0FFF7CAFF9E
:1027100004E000F08AF8204600F088F82577206869
:102720000169C943090716D4C168C943090712D40E
:102730006FF008010161042020772068C0698007DC
:10274000204602D0FFF7AEFF04E000F06EF820460E
:1027500000F06CF8257720680169C943C90617D4D1
:10276000C168C943C90613D46FF010010161082084
:1027700020772068C06910F4407F204602D0FFF720
:1027800091FF04E000F051F8204600F04FF8257763
:1027900020680169C943C90708D1C168C943C9078D
:1027A00004D1891E0161204600F042F820680169C9
:1027B000C943090609D4C168C943090605D46FF0A5
:1027C000800101612046FFF7C5FE20680169C94309
:1027D000C90509D4C168C943090605D46FF48071DD
:1027E00001612046FFF7B5FE20680169C94349062B
:1027F00009D4C168C943490605D46FF0400101619D
:10280000204600F0A9F820680169C94389060BD465
:10281000C168C943890607D46FF0200101612046D1
:10282000BDE87040FFF797BE70BD7047704700006D
:102830002DE9F04106464348434C864202D1E089E7
:10284000401CE08141493068414F0025884217D142
:10285000208A401C80B22082B0F5FA7F00D3258206
:10286000608A401C80B26082642809D360780128A5
:1028700006D197F8C800A08580B203F08DFD65826F
:102880003449306888425BD1608D012844D1A08CE6
:10289000401C80B2A084B0F57A7F51D360780128C3
:1028A0004ED1E08C401C0004000CE084A58421D0B3
:1028B0000526B0FBF6F106FB110038B92249208B42
:1028C0001E3103F071FAA083E08C98B1E08CB0FB6C
:1028D000F6F106FB110068B997ED300B51EC100BC7
:1028E000FEF739F8184980B2223103F021FA218C21
:1028F00008442084E08C218D50EA010201D003F0CD
:1029000099FDE08C3C2807D1208D401C81B22185A7
:102910002846E58403F08EFD608D642810D160792F
:1029200002280DD305280BD86570A38BE28C218D6E
:10293000208C03F0BBFF608D401C60850120A071DE
:10294000BDE8F081E80100201800002000440140AB
:1029500000240020001400407047704770470000BA
:102960002DE9F04102680446D0691168936810F0BF
:102970000F0F4FF000055BD003F0010601F49077D4
:10298000374369D0C70707D0CF0505D501271762A0
:10299000626F42F001026267820708D5DA0706D04B
:1029A000276802223A62626F42F0040262674207BD
:1029B00008D5DA0706D0236804221A62626F42F053
:1029C0000202626702070AD501F02002324306D0F4
:1029D000236808221A62626F42F008026267626F1F
:1029E000002A32D0800605D5880603D5216E09B1AC
:1029F00020468847606F000703D42068806840063F
:102A000025D5204600F0D4FE20688168490619D5F6
:102A1000816821F040018160E06E98B120498163B6
:102A2000E06EFEF735FB00280FD0E06E816B06E00C
:102A3000860611D58E060FD5216E1EE02046BDE814
:102A4000F04108472046FFF789FFBDE8F0812046A6
:102A5000FFF784FF6567F8E7C60209D55B0207D573
:102A60004FF4801010622046BDE8F041FFF775BFBB
:102A7000030605D50B0603D5616E0029DED1E4E718
:102A80004006E2D54806E0D51168204621F0400115
:102A90001160202184F87110656600F053F9D4E7C5
:102AA0009D37000810B5040003D094F8710010B1F0
:102AB00007E0012010BD002084F87000204600F0DF
:102AC00027F8242084F871002068016821F00101B2
:102AD0000160204600F0D8FE0128EBD0606A10B1FA
:102AE000204600F0C9FD2068416821F49041416012
:102AF0002068816821F02A0181602068016841F026
:102B0000010101602046BDE8104000F019BE000040
:102B1000F0B5264F03680026254902250324072225
:102B200087B04FF09040BB4216D10B6E43F4804308
:102B30000B66096E01F48041059161028DE8620027
:102B4000CDE903426946FEF7DDFB00221146252050
:102B5000FEF728FD252024E0164FBB4223D18B6DC4
:102B600043F400338B65896D074601F4003105910C
:102B700004218DE86200CDE903426946FEF7C2FBFD
:102B80004FF40040CDE90005CDE9026469460494A4
:102B90003846FEF7B7FB002211462620FEF702FD5D
:102BA0002620FEF7F3FC07B0F0BD0000003801401E
:102BB000001002400044004030B590F87230202BE5
:102BC0004AD1B1B1AAB190F87030012B44D00123A1
:102BD00080F870304165A0F85820A0F85A200022F3
:102BE00002661D038168FF23A94207D1016911B163
:102BF0000CE0012030BD40F2FF110DE07F2419B13F
:102C0000B1F1805F05D009E0016901BBA0F85C303B
:102C100004E00169D9B13F21A0F85C10426722218C
:102C200080F8721001688B6843F001038B60816843
:102C3000A94201D1016969B10849016680F8702093
:102C40000068016841F490710160002030BDA0F877
:102C50005C40E3E70249F0E7022030BD2D38000870
:102C6000D1370008084910B588420CD10748017BCC
:102C7000074802F006FF05490122BDE810400C316B
:102C80000148FFF799BF10BDA802002018000020DE
:102C9000002400202DE9F843044690F871001F46F7
:102CA00016460D4620284BD1C5B1BEB194F8700030
:102CB000012845D0012084F870004FF00008C4F8C6
:102CC0007480212084F87100FEF7EAFBA4F85060BC
:102CD0008146A4F852604FF4805615E00120BDE80B
:102CE000F8838021204600F0E9FED8B9A068B04200
:102CF00001D12069C0B115F8010B21680885B4F82D
:102D00005200401EA4F85200B4F852004B464FF057
:102D1000000200970028E4D14FF04001204600F067
:102D2000CDFE30B10320DAE735F8020BC0F308001E
:102D3000E3E7202084F8710084F870800020CEE75B
:102D40000220CCE77047FEE710B504490448FEF7BF
:102D50007BF90249491E087010BD0000CD0000201B
:102D6000B80000202DE9F0413C4886B0C16C41F02C
:102D70000401C164C16C01F004010591C16C41F012
:102D80000101C164C16C01F001010591C16C41F008
:102D90000201C164C06C324F00F0020005900022B5
:102DA00012213846FEF777FB4FF0904800224FF48F
:102DB000C8514046FEF76FFB2A4E3820CDE9000689
:102DC0000024694602944046FEF79CFA01250095CE
:102DD000CDE9016469463846FEF794FA1220009066
:102DE000CDE90154694638460394FEF78BFA4FF457
:102DF00088500090CDE90154694640460394FEF79F
:102E000081FAE802CDE900050220CDE902406946D9
:102E10004046FEF777FA002211460620FEF7C2FB75
:102E20000620FEF7B3FB002211460920FEF7BAFB8D
:102E30000920FEF7ABFB002211460A20FEF7B2FB89
:102E40000A20FEF7A3FB002211461720FEF7AAFB7B
:102E50001720FEF79BFB06B0BDE8F0810010024092
:102E60000004004800001110114810B50F4901601E
:102E70004FF48271416000214FF4E062C0E9021218
:102E80004FF400720161C0E905121822C0E9072160
:102E900007224162C0E90A12016308214163FFF77A
:102EA000A9F8002800D0FEE710BD00000030014066
:102EB00020010020104810B50E4901604FF48271C6
:102EC000416000214FF4E062C0E902120222026177
:102ED000012242615202C0E90621016207224162D9
:102EE000C0E90A1201634163FFF784F8002800D0AB
:102EF000FEE710BD003C0040840100203EB50E48B6
:102F00000C490024016040F2E731C0E9011440F2AD
:102F1000BF318461C160FFF74BFB00B1FEE7009455
:102F2000694605480294FFF717FB002800D0FEE72A
:102F30003EBD000000100040E80100203EB50D48F5
:102F40000B490024016040F2E731C0E901144F2130
:102F50008461C160FFF72CFB00B1FEE70094694675
:102F600004480294FFF7F8FA002800D0FEE73EBDBF
:102F700000140040280200200C4810B50A490160E6
:102F80004FF416514160002181600C22C160C0E9FC
:102F900004128161C16101624162FFF783FD002873
:102FA00000D0FEE710BD000000380140A80200205C
:102FB0000C4810B50A4901604FF4E131416000212D
:102FC00081600C22C160C0E904128161C1610162AB
:102FD0004162FFF767FD002800D0FEE710BD00004A
:102FE0000044004020030020FEE770470907090E57
:102FF000002806DA00F00F0000F1E02080F8141D30
:10300000704700F1E02080F800147047704700001E
:103010002DE9F041444C05468846E06800268107CA
:1030200028680DD0E16801F00301814216D1A8B1F2
:10303000E0686968C0F30210401C88420ED120E0AD
:10304000012804D0022805D0032807D108E0216810
:10305000890701E021684905002907DB01265FE0B7
:103060002168890302D421684903F5E7E1686A68A9
:103070006FF00F0321F0730103EB021211430143C0
:10308000E160206820F080602060FEF709FA0746C2
:1030900005E000BFFEF704FAC01B022837D82068FD
:1030A0000001F7D4B8F1000F18D0B8F1010F1DD00E
:1030B000287D4FF07E41400801EB4060A96840EA5E
:1030C00001202169194A114008432061206840F01D
:1030D00080602060FEF7E4F907461AE0A868297BC3
:1030E000000240EAC1602169114AECE7288A1149CF
:1030F000400801EB4050A96840EA012021690E4ACE
:10310000E1E700BFFEF7CCF9C01B022801D9032676
:1031100006E020680001F5D52069A969084320610F
:103120003046BDE8F081000000100240FF80FFF94A
:10313000FF80FF070000E0FFFF809FFFF8B51C4DF8
:1031400006460024A86DC00002D5FEF791FA0DE0F6
:10315000A86D40F08050A865A86D00F080500090E8
:10316000FEF786FAA96D21F08051A965B0F5007FC0
:1031700004D0802E07D94FF003040AE0802E08D92E
:10318000A02E01D804E001D1022402E0702E00D16B
:1031900001240848016821F007012143016000680B
:1031A00000F00700A04201D00120F8BD0020F8BDCA
:1031B00000100240002002400348002101800188E5
:1031C0000229FCD3704700002600002070B5054698
:1031D000512000F058F878B9FF2000F06BF9002476
:1031E0004FF6FF7600F0BBF8641CA4B2FE2801D0B5
:1031F000B442F7D3B44201D3052070BD00244FF48C
:10320000007600BF00F0ABF82855641CA4B2B442AD
:10321000F8D3FF2000F04EF9FF2000F04BF900201A
:1032200070BD70B50546582000F02DF838BBFF2062
:1032300000F040F9FE2000F03DF900244FF4007644
:10324000285D00F037F9641CA4B2B442F8D3FF2023
:1032500000F030F9FF2000F02DF900F080F8052192
:1032600081430CD100244FF6FF7500F078F8641C00
:10327000A4B2FF2801D0AC42F7D3AC4201D3062060
:1032800070BD002070BD2DE9F04104460D460006DA
:1032900007D504F07F0400217720FFF7F4FF012811
:1032A00037D80122D6024FF0904731463846FEF714
:1032B000F2F8FF2000F0FEF8002231463846FEF713
:1032C000EAF8FF2000F0F6F8204600F0F3F8280EA8
:1032D00000F0F0F8C5F3074000F0ECF8C5F3072064
:1032E00000F0E8F8E8B200F0E5F80120402C02D048
:1032F000482C02D002E0952000E0872000F0DAF8A8
:103300000A2400F02CF8010603D5641E14F0FF0413
:10331000F7D1BDE8F081F8B515460E460B46009290
:10332000044600224FF4C05100F01FF888B933461C
:10333000002280212046009500F062F848B933460B
:1033400000224FF4C0612046009500F00EF80028DE
:1033500004D0206E40F0200020660320F8BDFF203E
:1033600000F0A8B8FF2000F0A5B82DE9F0471D46F1
:1033700017460E4604464FF4C068DDF820900CE076
:10338000464501D107B9007B681C06D0FEF788F8D6
:10339000A0EB0900A84208D23DB120688168314005
:1033A000B942EDD10020BDE8F0872068416821F0E6
:1033B000E00141606068B0F5827F0BD1A068B0F594
:1033C000004F02D0B0F5806F04D12068016821F071
:1033D00040010160A06AB0F5005F09D12068016872
:1033E00021F4005101602068016841F4005101603E
:1033F000012084F85D00002084F85C000320D2E7FF
:103400002DE9F0411D4617460E460446DDF81880AA
:1034100008E0681C06D0FEF743F8A0EB0800A842BD
:103420000BD255B12068806836EA000030D0002009
:10343000B842EED10020BDE8F0812068416821F05B
:10344000E00141606068B0F5827F0BD1A068B0F503
:10345000004F02D0B0F5806F04D12068016821F0E0
:1034600040010160A06AB0F5005F09D120680168E1
:1034700021F4005101602068016841F400510160AD
:10348000012084F85D00002084F85C000320D2E76E
:103490000120CDE770B500244FF6FF75FFF75FFF01
:1034A000641CA4B2FF2801D0AC42F7D3AC4200D3D5
:1034B000012070BD01B582B000208DF804004FF4EA
:1034C00080500090012301AA02A90648FEF7E8FEF9
:1034D00020B1002280210448FDF7DDFF9DF80400A3
:1034E0000EBD00002001002000040048704710B508
:1034F000FDF7DCFFBDE81040FFF727B830B5ABB0F3
:10350000FEF7BEF8264850F8901F21F01801016020
:103510001420009001200290002460210690CDE943
:1035200007410221CDE90A100C9028200D900720B8
:10353000CDE90E0168461091FEF700FB00B1FEE7F1
:103540000F2026900325CDE927542994042126A88D
:103550002A94FEF7EBF900B1FEE7199411A8119532
:103560001A94FEF79DF800B1FEE74FF40070FEF7E5
:103570004BF800B1FEE7FEF765FA4FF47A71B0FB45
:10358000F1F0FEF7CEFF0420FEF7BEFFFEF780F855
:1035900000221146501EFEF705F82BB030BD00008A
:1035A000001002400D48016841F4700101600C48B0
:1035B000016841F001010160002181600268094B4E
:1035C0001A4002608214C260026822F48022026003
:1035D00081610249C00380390860704788ED00E0CE
:1035E00000100240FFFFF6EA0148FFF75CB8000058
:1035F000680200200148FFF756B80000E8010020EB
:103600000148FFF750B800002802002070B502689A
:10361000164B4FF08046984201D0B04203D122F0C1
:1036200070044A682243124C124D984205D0B042B1
:1036300003D0A04201D0A84203D122F44076CA6848
:1036400032434E6922F08002324302608A68C262CD
:103650000A688262984203D0A04201D0A84201D1F8
:10366000096901630121416170BD0000002C014026
:10367000004001400044014090F82410C90706D0E2
:1036800001684A68836A22F400321A434A6090F85B
:103690002410890706D501684A68C36A22F480327B
:1036A0001A434A6090F82410490706D501684A6811
:1036B000036B22F480221A434A6090F82410090711
:1036C00006D501684A68436B22F400421A434A60F7
:1036D00090F82410C90606D501688A68836B22F425
:1036E00080521A438A6090F82410890606D5016832
:1036F0008A68C36B22F400521A438A6090F824103F
:10370000490611D501684A68036C22F480121A43F5
:103710004A60016CB1F5801F06D101684A68436CAC
:1037200022F4C0021A434A6090F82410090606D514
:1037300001684A68806C22F4002202434A607047A4
:10374000F8B5002604464667FDF7AAFE0546206840
:1037500000686FF07E47000708D52B4600224FF423
:1037600000112046009700F0A9F960B920680068B0
:1037700040070AD52B4600224FF4800120460097CF
:1037800000F09CF908B10320F8BD202084F87100F6
:1037900084F8720084F870600020F8BD10B5806A6B
:1037A0000021A0F85A10A0F85210FFF7D7F810BD6A
:1037B00001680A6822F490720A6001688A6822F03F
:1037C00001028A60202180F8721000210166704792
:1037D00010B5B0F85C2090F872300168222B04D04C
:1037E000088B40F00800088310BD898C436D1140A0
:1037F0001980416D891C4165B0F85A10491E0904B1
:10380000090CA0F85A10EFD101680A6822F49072EE
:103810000A6001688A6822F001028A60202180F82B
:10382000721000210166FFF71DFA10BD10B5B0F847
:103830005C2090F872300168222B04D0088B40F095
:103840000800088310BD898C1140426D531C4365EC
:103850001170B0F85A10491E0904090CA0F85A104A
:10386000F0D101680A6822F490720A6001688A68DF
:1038700022F001028A60202180F872100021016686
:10388000FFF7F0F910BD00002DE9F0410446026891
:1038900080682369E669184363691025002733436C
:1038A00018437D4913687D4E3340034313602068FD
:1038B0004268E36822F440521A4342602268A069D9
:1038C0008A4201D0236A1843936823F43063034388
:1038D0009360734A2368734893420DD1D0F88800EF
:1038E00010F0030006D001282AD0022826D0032891
:1038F00029D127E0012526E06B4A93420BD1D0F86D
:10390000880010F00C0017D0042819D0082815D012
:103910000C2818D116E08B4215D1D0F8880010F48D
:10392000406009D0B0F5806F0AD0B0F5006F05D0C7
:10393000B0F5406F07D105E0002504E0022502E064
:10394000042500E00825594A00264FF400408B4228
:103950003DD135B1022D07D0042D07D0082D10D14F
:1039600007E0FEF775F803E0104602E0FEF794F872
:10397000A8B3626802EB4201814202D8B0EB023F79
:1039800001D9012775E0DFF828815DB1022D0CD047
:10399000042D13D0082DF4D150082905401846F104
:1039A000000105E0FEF754F80AE050084149F5E748
:1039B0000023FCF707FCA0F5407156E0FEF76CF819
:1039C0006268010E0302500818187141F0E7E169BE
:1039D0004FF6EF7881422FD1092DD2D200E048E096
:1039E000DFE805F006092005230505052600C8E7E0
:1039F000FEF72EF801E0FEF73DF84100D4F8040090
:103A000001EB5001B1FBF0F080B2A0F11001414593
:103A1000B7D84FF6F0710140C0F34200014320686F
:103A2000C16026E024496068EAE7FEF735F8E4E77C
:103A30004FF480316068E3E7092DA2D2DFE805F09A
:103A400006091E052205050525009AE7FEF700F880
:103A500001E0FEF70FF80146606801EB500100BF7E
:103A6000B1FBF0F080B2A0F11001414589D8216886
:103A7000C860266638466666BDE8F081606802EB7D
:103A80005001EDE7FEF708F8E5E7616800EB51004B
:103A9000B0FBF1F0E6E7000000800040F369FFEFC3
:103AA0000038014000100240004400400024F400AF
:103AB000FFFC0F00000024F40048E8012DE9F0416C
:103AC000984617460E460446069D1DE0681C1BD00E
:103AD0002DB1FDF7E5FCA0EB0800A84214D9206841
:103AE000016821F4D07101602068816821F0010132
:103AF0008160202084F8710084F87200002084F82E
:103B000070000320BDE8F0812068C06936EA00003B
:103B100004D00020B842D9D00020F3E70120F9E713
:103B20000148FEF71DBF0000A80200200148FEF773
:103B300017BF00002003002010B54FF4805311225E
:103B400007A10C48FFF7A6F8FFF736FB03F07AF859
:103B5000094918B9087820F001000870087810BDEC
:103B6000555345525F696E697469616C697A650D78
:103B70000A00000020030020B40000202DE9F041DD
:103B800016460D4604464FF480573B460C221BA1B7
:103B90001E48FFF77FF82A461DA1204800F010F9C3
:103BA0001E48FCF755FB82B23B461C491748FFF7FD
:103BB00071F814B10420BDE8F08119480078C007FD
:103BC00001D00320F7E7012435B1022D11D00424E0
:103BD000FFF7C8FB2046EEE700224FF400614FF0EC
:103BE0009040FDF758FCFFF755FCFF28F0D100246A
:103BF000EEE74FF400703080F9E70000555345526E
:103C00005F696F63746C0D0A0000000020030020E0
:103C1000636D643A2025640D0A000000E400002072
:103C2000B40000202DE9F0411D46144688460646A2
:103C30004FF480573B460B2218A11B48FFF72AF888
:103C40002B46224619A1204800F0BAF81E48FCF77E
:103C5000FFFA82B23B461C491348FFF71BF83EB9F6
:103C600035B11A480078C00704D00320BDE8F081C0
:103C70000420FBE716480078400700D46402012DB9
:103C800003D0FFF76FFB0120F0E721464046FFF726
:103C90009DFAFFF767FB0020E8E700005553455207
:103CA0005F726561640D0A00200300207365637410
:103CB0006F723A20256C753B20636F756E743A20E5
:103CC00025640D0A00000000E4000020B40000207C
:103CD0000000002010B504464FF480530D2205A1CA
:103CE0000848FEF7D7FF0CB1012010BD0648007848
:103CF00010BD0000555345525F7374617475730DA8
:103D00000A00000020030020B40000202DE9F0414B
:103D10001D461446884606464FF480573B460C2203
:103D20001AA11E48FEF7B6FF22461DA1204800F04A
:103D300047F81F48FCF78CFA82B23B461C491748EB
:103D4000FEF7A8FF3EB935B11A480178C90704D07B
:103D50000320BDE8F0810420FBE70078400701D58F
:103D60000220F6E714480078400700D46402012DD1
:103D700003D0FFF7F7FA0120EBE721464046FFF7B3
:103D800050FAFFF7EFFA0020E3E7000055534552E1
:103D90005F77726974650D0A00000000200300203F
:103DA000736563746F723A20256C750D0A0000000C
:103DB000E4000020B400002000000020FEE7000026
:103DC0000FB4084B10B504A902AA039800F022F81A
:103DD000044602A9002000F051FA204610BC5DF80C
:103DE00014FB00007D42000802E008C8121F08C151
:103DF000002AFAD170477047002001E001C1121F6C
:103E0000002AFBD1704730380A2801D201207047C0
:103E1000002070472DE9FF4F8DB00F460546002664
:103E200006E025280BD0DDE90F1290476D1C761CAB
:103E300028780028F5D111B0304600F0F3B90024FD
:103E4000A246A1460122EC4900E0044315F8013FD7
:103E5000203B02FA03F00842F7D128782A2810D034
:103E60006FF02F022878A0F13001092914D80AEB4D
:103E70008A0102EB410144F0020400EB010A6D1CCF
:103E8000F0E701CF5FEA000A03D544F40054CAF119
:103E9000000A44F002046D1C28782E2817D115F86A
:103EA000010F44F004042A280ED06FF02F02287866
:103EB000A0F1300109290AD809EB890102EB41017F
:103EC00000EB01096D1CF2E757F8049B6D1C287884
:103ED0006C280FD006DC4C2817D068280DD06A2833
:103EE00014D104E0742810D07A280FD10DE044F4E6
:103EF00000140AE044F4801401E044F440146978AA
:103F0000814202D104F580146D1C6D1C2A786E2A42
:103F10001FD00CDC632A31D004DC002A8BD0582A55
:103F200011D1A3E0642A68D0692A0CD165E0732A14
:103F30002ED004DC6F2A73D0702A04D19BE0752A3E
:103F40006FD0782A6ED01046DDE90F129047761CAC
:103F500050E1C4F30250022806D0032809D00428F7
:103F600001CF09D0066045E101CFF117C0E900613A
:103F700040E101CF06803DE106703BE117F8040BFC
:103F80008DF8000000208DF80100EB46012003E0D1
:103F900057F804BB4FF0FF3061074FF0000102D427
:103FA0000DE008F10101884649450FDA8045F8DB4C
:103FB0001BF808100029F4D108E008F10101884637
:103FC0008142FADB1BF808100029F6D1DDE90F2346
:103FD000AAEB08008146214600F039F9304400EB95
:103FE000080604E0DDE90F121BF8010B9047B8F159
:103FF0000108F7D221464846F7E00A21C4F30253EC
:104000004FF0000B0891022B04D001CFC117032BF6
:1040100009D00AE0FF1D27F00707F7E8020108E0D2
:1040200032E01FE020E000B2C117042B01D140B202
:10403000C117031E71F1000307DA4FF0000CD0EB3B
:104040000C006CEB01012D2302E0230504D52B238A
:104050008DF82430012303E0E30701D02023F7E7A4
:10406000984658E00A2110E010210EE010204FF091
:10407000000B08900CE010214FF0000B44F00404FA
:104080004FF00809089103E008214FF0000B089158
:10409000C4F30253022B04D001CF0021032B06D01E
:1040A00006E0FF1D27F00707F7E8020103E080B2F2
:1040B000042B00D1C0B24FF0000823072BD5702A83
:1040C00007D0DDF820C08CF0100C5CEA0B0C05D09A
:1040D0000EE040238DF82430012308E050EA01036C
:1040E00006D030238DF824308DF825200223984601
:1040F000DDF820C08CF0080C5CEA0B0C0BD150EA08
:10410000010301D1630706D530238DF824304FF029
:104110000108A9F10109582A04D038A20B9208AA73
:104120000A920BE03AA2F9E75B46089AFCF74AF8D4
:104130000B9B9B5C0A9A521E0A92137050EA010272
:10414000F2D10A98ADEB000000F1200B600702D518
:1041500024F4803401E04FF00109D94502DDA9EBD8
:104160000B0000E0002000EB0B0141440890AAEB9B
:10417000010AE00306D4DDE90F232146504600F092
:1041800066F806444FF0000908E009A911F8090093
:10419000DDE90F12904709F10109761CC145F4DBF6
:1041A000E0030CD5DDE90F232146504600F04FF81F
:1041B000064404E0DDE90F1230209047761C089990
:1041C000481E08900029F5DC08E00A980A99007852
:1041D000491C0A91DDE90F129047761CBBF10001E2
:1041E000ABF1010BF1DC21465046DDE90F2300F075
:1041F0001CF806446D1C1BE60928010030313233DF
:104200003435363738396162636465660000000012
:1042100030313233343536373839414243444546FC
:104220000000000030BCBDE8C08F2DE9F04104461D
:1042300000251E461746880404D405E03946202090
:10424000B0476D1C641EF9D52846BDE8F0812DE904
:10425000F041044600251E469046C80301D530278C
:1042600000E02027880404D505E041463846B047E1
:104270006D1C641EF9D52846BDE8F0810A68531C00
:104280000B6010707047000010B504460020E0700D
:10429000401E6063204602F066F808B1042010BD9D
:1042A00004F2362001F03EFDA0F52A41553901D037
:1042B000032010BD94F83800E92805D0EB2814D16C
:1042C00094F83A00902810D104F16E0001F01FFD1F
:1042D0000749B1EB002F06D004F18A0001F017FD69
:1042E0000449884201D1002010BD022010BD000009
:1042F000004641544641543300E0401C02780AB164
:104300008A42FAD1D0B27047F0B50022144D13465C
:1043100005EB021426685EB10768BE4209D16668E3
:104320008768BE4205D1A4684669B44204D000E063
:104330000123521C022AEBD3022A01D069B904E0FE
:104340004BB9022907D01220F0BD05EB021080897D
:10435000B0F5807F01D00020F0BD1020F0BD00003E
:10436000E824002030B50021054B0C4603EB011278
:104370001568854200D11460491C0229F6D330BD6E
:10438000E82400200268C06A938952895343B1FB34
:10439000F3F1001D04C81AB1914203D3891AF8E75A
:1043A00000207047006808447047C269891E921E49
:1043B0008A4201D800207047026B408901FB00202F
:1043C000704700002DE9F05F82460C4601F11A00AB
:1043D00001F0A8FC78BB2078012700F03F00401EC8
:1043E00000EB8001DFF8589001EBC00500264FF686
:1043F000FF7B00BF19F80600204401F093FC8046C3
:104400006FB1FF2D17D200F093FE07463AF8150062
:104410006D1C00F08DFE87420DD1474601E0D84566
:1044200009D1761C0D2EE5D32078400606D52FB194
:104430003AF8150010B1002000F004B80120FBE7A5
:104440002E83000830BCBDE8C09F2DE9F04105680F
:104450000F00804606D001F071F8022809D2012031
:10446000BDE8F0816E6916B1E869B04207D801264F
:1044700005E0411CF4D0E9698142F1D83E4634465A
:10448000E869641CA04202D80224022E0AD3214605
:10449000404601F053F838B10128E1D0411CDFD08B
:1044A000B442EDD10020DBE74FF0FF363246214623
:1044B000284602F0FBFA30B957B122463946284661
:1044C00002F0F4FA20B101280FD001242046C7E7FA
:1044D0006C61D5E90601891E884201D8401EA86199
:1044E000287940F001002871F0E73446EEE700003B
:1044F0002DE9F84F824600680E6800240769884657
:104500002546705D6D1C20281AD32F2813D05C28F7
:1045100011D0FF2C39D2012100F0EEFD5FEA000935
:1045200033D0B9F1800F12D201466DA0FFF7E4FE3F
:1045300058BB0CE06D1C715D2F29FBD05C29F9D0B4
:104540007219C8F80020202805D204250FE027F8AA
:104550001490641CD5E7002509E000BF07EB440078
:1045600030F8020C202801D02E2802D1641E002C25
:10457000F4D1002027F814003CB10B2220210AF1CD
:10458000240001F0E9FE002603E0062000F0B4B8A4
:10459000761C37F816002028FAD02E28F8D01EB145
:1045A00045F0030500E0641E2CB107EB440030F831
:1045B000020C2E28F7D14FF000094FF0080BCDF870
:1045C000009000BF37F8160006F101065FEA000808
:1045D00024D0B8F1200F04D0B8F12E0F04D1A64298
:1045E00002D045F00305EDE70098584501D2A642F8
:1045F00019D1BBF10B0F0FD0A64201D045F0030536
:104600000CD84FF0080000904FEA896026464FF022
:104610000B0B4FEA1069D5E745F003059AF8240023
:10462000E52838D03AE04046B8F1800F10D3002199
:1046300000F062FD5FEA000805D02C4901EB08009C
:1046400010F8800C804645F00205B8F1000F04D048
:10465000014627A0FFF750FE20B14FF05F0845F05C
:1046600003050FE0A8F14100192802D849F002091A
:1046700008E0A8F16100192804D8413049F0010987
:104680001FFA80F8009A0AEB020181F82480009852
:10469000401C009096E705218AF82410BBF1080F12
:1046A00003D14FEA89604FEA1069C9F381000328FA
:1046B00003D06FEA0901890701D145F00205A90776
:1046C00009D409F00301012901D145F010050128A1
:1046D00001D145F008058AF82F50002056E7000068
:1046E000222A3A3C3E3F7C7F00000000AE82000858
:1046F0002B2C3B3D5B5D000018BCBDE8E08F00004B
:10470000401E022812D20A4901EB00118889B0F537
:10471000807F05D008B1401E80B2888110B103E0CF
:104720000020FAE700200860002070470220704750
:10473000E82400202DE9F04704460021D0F800903D
:1047400000F0D7F900285BD1FF25471EA846276354
:104750004846E16901F007FE060050D1216A087859
:1047600050B1CA7AE52802F03F02A2713FD0130788
:1047700004D50F2A3BD105E0042640E00F2A01D0E2
:10478000E5B120E094F82F20520632D4420606D537
:1047900091F80D8000F0BF00626905462263A842CF
:1047A00009D14A7B424506D1D9F81000FFF70AFE2D
:1047B00008B16D1E00E0FF25EDB21AE0084602F0D8
:1047C000B5FD40451BD094F82F00C0070FD1D4F899
:1047D000201004F124000B2211F8013B10F8015BBA
:1047E0005B1B521E02D0002BF6D000E03BB1FF2530
:1047F00027630021204600F005F80600A8D03046C7
:10480000BDE8F0872DE9F047054647690468C069AF
:104810008946203710B1B7F5001F02D30420BDE848
:10482000F087A189B7FBF1F201FB127100295FD17A
:10483000401CE861A9694FF0000819B3A08962899A
:10484000B7FBF0F0521E104252D1284600F076FE1F
:10485000064601281FD9701C36D0E069B04241D805
:10486000B9F1000F12D02846A969FFF7EEFD060046
:104870000FD0012E0FD0701C26D0204602F0A8FDCC
:1048800010BB0AE02089B0EB571F31D8C5F81C8057
:10489000C4E70720C3E70220C1E7A289002104F191
:1048A000380001F059FD4FF0000831462046FFF76F
:1048B0007CFD4FF0010960630DE000BF84F80390B8
:1048C000204602F085FD08B10120A8E7606B08F1E1
:1048D0000108401C606361894145EFD8616BA1EB21
:1048E0000800606331462046AE61FFF75EFDE86177
:1048F0006F61A089B7FBF0F100FB117020443830E4
:10490000286200208BE700002DE9F04F0446D0F824
:10491000009090F82F0089B010F0A00F03D006206F
:1049200009B000F0E3B80025D9F8100000E06D1CD4
:1049300030F815100029FAD104F124010C22684640
:10494000039101F0FFFC9DF80B00C00719D0402037
:1049500084F82F00012633466946D9F810200398C1
:1049600000F0ACFD2046FFF7E5FE10B9761C642E82
:10497000F1D3642E0FD00428D2D19DF80B0084F817
:104980002F009DF80B00800707D50D200C35B5FBD7
:10499000F0F56D1C02E00720C2E70125002120464A
:1049A000276800F0A6F888B900263846E16901F0CA
:1049B000DAFC58B9206A0078E5280AD048B1002608
:1049C00001212046FFF71EFF0028EED0042812D058
:1049D00012E0761C2846AE42F2D1451E059567D0FE
:1049E0006169684201EB4011204600F082F85FEAFD
:1049F000000803D076E00720804673E0039802F0B9
:104A000095FC4FF6FF7B07904846E16901F0ABFC4F
:104A10005FEA000866D1D9F8100006900598D4F82E
:104A20002080C0B20490079988F80D100F2188F8F3
:104A30000B10002188F80C1008F11A0002F072FC2B
:104A40000498DFF8A4A0401E00EB800101EBC00633
:104A5000002701E05D4503D0069830F81650761C1B
:104A60001AF8071001EB0800294602F05BFC05B9B3
:104A70005D467F1C0D2FEDD35D4505D0069830F8BF
:104A8000160008B1049803E0049840F04000049038
:104A900088F80000012189F8031000212046FFF763
:104AA000B1FE5FEA00081DD10598401E0590ABD10C
:104AB0004846E16901F057FC5FEA000812D1202264
:104AC0000021206A01F048FC0B22206A039901F0C2
:104AD00039FC94F82F00216A00F0180008730120B7
:104AE00089F8030040461BE72E83000830BCBDE870
:104AF000C08F2DE9F04104680F460646B1F5001F4E
:104B00003CD2F8063AD17761B56825B920780328F8
:104B100006D3E56A25B16089A18900FB01F812E09E
:104B20002089B0EB571F29D9E06A12E0304600F027
:104B300005FD0546401C1FD0022D1FD3E069A84289
:104B40001CD9A7EB080747452946EFD22046FFF7B7
:104B50002CFCC6E9065088B1A189B7FBF1F10844E5
:104B6000F061A089B7FBF0F100FB117020443830F0
:104B700030620020BDE8F0810120FBE70220F9E768
:104B8000084910B50B5C002253B901220A540A18D7
:104B900001EB8000127A406801681046884702469F
:104BA000104610BD0827002030B4054C231804EB34
:104BB00080001B7A406804691846A44630BC6047F0
:104BC0000827002030B4054D2C1805EB8000247A0E
:104BD000406885682046AC4630BC60470827002006
:104BE000044A111802EB8000097A406842680846BE
:104BF000104700000827002030B4054D2C1805EBA5
:104C00008000247A4068C5682046AC4630BC6047C6
:104C10000827002038B5044600F04AF900280CD1D6
:104C20006946204602F0FDFB002806D12069FFF707
:104C300067FD002801D10021216038BD2DE9F74131
:104C400081B0904602980090684600F0EDFC0400A8
:104C500003D50B2004B0BDE8F0810D4E002756F8B7
:104C600024501DB12846FFF77DFB2F7001980028C6
:104C700000D0077046F8240002D0B8F1010F01D02F
:104C80000020E7E7002201A902A800F091FAE1E77D
:104C9000E00000202DE9F74394B005000BD002F0AE
:104CA0003F063246694615A800F082FA04004FF02C
:104CB000000804D0F3E0092017B0BDE8F0830098A5
:104CC000049004A8159900F0BBFB04000ED19DF8D8
:104CD0003F00000601D5062408E0700801D001213C
:104CE00000E0002104A8FFF70FFB044616F01C0F9C
:104CF0005DD04FF00109C4B1042C10D100206B49E4
:104D000002E0401C022804D201EB00121268002AC3
:104D1000F7D1022807D004A8FFF7F6FD044646F0B5
:104D200008065CB1BBE01224B9E09DF8160010F053
:104D3000110F47D1700701D50824B0E0300747D5DF
:104D400000F070FC07460C9839460E3002F0E2FA8B
:104D50000C983946163002F0DDFA0C982021C17209
:104D60000C99009800F0C0FF074600220C990098AB
:104D700002F0BCFA0C9800211C3002F0CBFA00992A
:104D800081F8039017B3D1F834900022394604A873
:104D900001F01EFF040009D14946009801F0E3FA32
:104DA00004000098A7F1010747610DD077E0ECBB44
:104DB0009DF81600C10601D5042470E0B10703D5A3
:104DC000C00701D007246AE0300701D546F040064D
:104DD0000098406B68620C98A862700801D00121AD
:104DE00000E0002104A800F06FFE2861C0B30C9918
:104DF000009800F079FFA8600C981C3000F087FF45
:104E0000C5F82C80E86000992960009905F1300010
:104E10004FF48052C988A9802E7585F81580C5F891
:104E2000208000218146C5F8188000E037E001F0BD
:104E300093FAB00635D5EE689EB3AE610098A968C6
:104E40004789808947430FE0284600F077FB0146F9
:104E5000012800D80224481C03D0F61B24B105E029
:104E600021E00124F61B01E0BE42EDD8E961B4B9AE
:104E700000988289B6FBF2F302FB13628AB1FFF756
:104E800094FA80B1009901238A89B6FBF2F20244B8
:104E90002A6248784946FFF795FE10B10124C5F80B
:104EA0000080204608E70224F9E70000E8240020FB
:104EB000F8B50446694602F0B4FA00280ED1217D07
:104EC0004A060BD508060ED50098226A01234078C1
:104ED00004F13001FFF790FE08B10120F8BD207DFC
:104EE00000F07F00207500F09DFB0646616A009887
:104EF00001F039FA0028F1D1A56A2946E87A40F094
:104F00002000E872A268206802F0F0F905F11C00A8
:104F1000E16802F0FFF9314605F1160002F0FAF9F6
:104F2000002105F1120002F0FDF900980121C17085
:104F300002F00AFA217D01F0BF012175F8BD2DE9CB
:104F4000F04F884689B000211960994615460446FD
:104F500004A902F066FA002806D1607D002803D17A
:104F6000207D800703D4072009B000F0C1B8A069F4
:104F7000012742194FF0020A04F1300B824200D29D
:104F8000C543ACE00498A1698289B1FBF2F302FB4E
:104F90001313002B79D1B1FBF2F64089401E064075
:104FA00018D129B1E06A38B12046FFF7EBF907E0E4
:104FB000A06838B9002100E0E1692046FFF745FA12
:104FC00000287ED001282FD0411C58D0E061A16874
:104FD00001B9A060207D00060BD50498226A012348
:104FE00040785946FFF708FEC0BB207D00F07F00E7
:104FF0002075E1690498FFF7D8F9A8B13044009012
:1050000004988189B5FBF1F1029141B3721841898D
:105010008A4201D9891B029140784146029B009A3D
:10502000FFF7EAFDD0B903E084F815A002209BE762
:10503000216A0098081A029988420AD204998A893A
:1050400000FB0281584601F07DF9207D00F07F00D1
:10505000207504988689029846432FE00FE0FFE709
:10506000226A00998A420ED0E268A16991420AD26E
:10507000407801235946009AFFF7A4FD18B16775DF
:10508000012071E701E0009820620498A1698089FD
:10509000B1FBF0F200FB1212861AAE4200D92E4686
:1050A000B1FBF0F200FB1210204432464146303092
:1050B00001F048F9207D40F080002075B044A069DF
:1050C00000E00FE03044A061E168884200D8084663
:1050D000E060D9F800008119AD1BC9F80010002D5F
:1050E0007FF450AF207D40F04000207500203BE76A
:1050F00030BCBDE8C08F0000802804D30B4A51B1FA
:10510000FF2801D90020704702EB4000A0F5805035
:10511000B0F8000F704732F81130834203D0491CB9
:1051200089B28029F7D38031C8B27047007F000868
:1051300030B5B0F5805F01D21B4900E01B4931F862
:10514000022B002A15D0904213D331F8024B230AC8
:10515000E5B252FA84F4844221D9092B09D2DFE85E
:1051600003F005090E11131517191B00801A31F8E9
:10517000100030BD811A01F00101401A00E0103822
:1051800080B230BD2038FBE73038F9E71A38F7E74E
:105190000830F5E75038F3E7A0F5E350F0E7002BCF
:1051A000CDD101EB4501CAE700800008F28100087B
:1051B0002DE9FF41002790460E460F6000F034FABB
:1051C000050003D50B2004B0BDE8F081984850F8E5
:1051D00025409CB13460207808F0FE0620B160784C
:1051E000FFF7FEFCC1070BD02770E8B2B84660702D
:1051F000FFF7C6FCC10708D00320E4E70C20E2E774
:105200000EB1400704D40020DDE71EB1400701D5F0
:105210000A20D8E7607804F10C020221FFF7C4FCF1
:10522000F0BBA089A0F50071B1F5606F3FD8411EB9
:1052300008423CD1002631462046FFF725F80228D7
:1052400022D100254FEA0D0704EB051090F8FA1162
:1052500000F5FB7019B1083000F059FD00E00020A6
:1052600047F825006D1C042DEED3002557F8256066
:1052700036B131462046FFF707F8022801D203E095
:1052800003206D1C042DF1D3042810D0022878D2FD
:1052900004F1430000F046FDA189884271D100E08D
:1052A00005E004F14E0000F03DFD10B105E00120E5
:1052B00089E704F15C0000F02AFD206294F8485070
:1052C000A570012D01D0022D5BD1454394F8450016
:1052D0006081E8B3411E084253D104F1490000F057
:1052E00021FD2081A1894909B0FBF1F201FB1200E7
:1052F00070BB04F14B0000F015FD070004D104F170
:10530000580000F004FD074604F1460000F00AFDD5
:10531000010036D0A08923894009B3FBF0F04A1977
:10532000024497422DD3B81A6789B0FBF7F078B1E1
:1053300003274FF6F57C604500D8022740F6F57C40
:10534000604500D801273244801C3144226300E0CC
:1053500017E0E061C4E90961032F14D08BB129443F
:10536000E162022F20D000F0010100EB400001EBD0
:105370005000A189401E0844B0FBF1F0216A884228
:1053800014D90D201FE704F1620000F0CBFC0028C7
:10539000F7D120890028F4D104F1640000F0B7FCB3
:1053A000E062E0698000E4E74000E2E74FF0FF30B0
:1053B000A061606180202071032F2CD104F168006E
:1053C00000F0B0FC012826D1711C204600F0CBFF74
:1053D00008BB84F8048004F2362000F0A3FCA0F59A
:1053E0002A41553917D104F1380000F090FC1149D9
:1053F000884210D104F5077000F089FC0E498842FC
:1054000009D104F5087000F082FCA06104F5097070
:1054100000F07DFC606106482770001F0188491C70
:105420000180E180054820612046FEF79BFFEAE607
:10543000E000002052526141727241610825002053
:1054400073B504460568019801E0401C019001789D
:105450002F29FAD05C29F8D00021A16001980078AA
:10546000202806D2802084F82F002046FFF741FB39
:105470007CBD01A92046FFF73BF80028F8D1204663
:10548000FFF758F994F82F1028B10428F0D14907F4
:10549000EED405207CBD4907FCD4A079C006F8D520
:1054A000A9896069B0FBF1F201FB1200411928469D
:1054B000383100F019FCA060DBE700007CB516462F
:1054C0001C4605460B2200F03DFF052C11D91A4A57
:1054D0000CE00021B61C2346044663F35F04400839
:1054E000E30300D55440491C1029F4D33088002828
:1054F000EFD107214FEA0D0204F00F0030303928B8
:1055000000D9C01D5054491E2409F5D17E205054A5
:10551000002000E0401C884202D22B5C202BF9D1F5
:10552000082902D2535C491C00E020232B54401C64
:105530000828F5D37CBD0000211001002DE9F041C1
:1055400004680D4602290BD3E069A84208D92078E7
:105550004FF0FF36012807D0022834D0032849D065
:1055600001263046BDE8F081A08905EB5507B7FB61
:10557000F0F0A16A0144204600F0F5FE0028F0D1C9
:10558000A089B7FBF0F100FB11717F1CB7FBF0F0B5
:10559000214491F83880A16A0144204600F0E3FEDE
:1055A0000028DED1A089B7FBF0F100FB1170204488
:1055B00090F8381048EA0120E90701D00609D0E741
:1055C000C0F30B06CDE7A089A16A4008B5FBF0F057
:1055D0000144204600F0C7FE0028C2D1A18968001E
:1055E000B0FBF1F201FB12002044383000F09AFBCE
:1055F0000646B6E7A089A16A8008B5FBF0F0014431
:10560000204600F0B0FE0028ABD1A189A800B0FB75
:10561000F1F201FB12002044383000F078FB20F05A
:1056200070469EE70020704710B504464FF0FF30EB
:105630002268002A13D0114600E0491C0B78202B69
:105640000ED33A2BF9D112F8013B303B0A2B06D28C
:105650008A4204D1002B02D1491C1846216010BD9A
:10566000002010BD10B5BAB00022009111466B4663
:105670009C18521CD2B22171642AF9D38DF868109B
:105680008DF8691000229C18521CD2B284F86A105E
:105690001E2AF8D38DF88C108DF88D109FED110B0C
:1056A00022918DF88E108DED240B3F228DF89820DD
:1056B0008DED280B8DF8A8208DED2C0B8DED2E0B8C
:1056C0008DED300B8DF8C8108DF8C9208DED340BA1
:1056D0008DED360B8DED380BE8221946FAF7A6FD55
:1056E0003AB010BD000000000000000070B5044694
:1056F00000F0A2F9204600F09FF9204600F09CF946
:10570000204600F099F9204600F096F9204600F076
:1057100093F904F16A000546FAF79AFD28B104F1FD
:10572000C90212A12846FAF7A9FD204600F084F923
:105730002846FAF78DFD28B104F1C8020BA12846CE
:10574000FAF79CFD204600F077F9204600F074F946
:105750002846FAF77DFD002807D004F1B00228465C
:10576000BDE8704002A1FAF789BD70BD2564000054
:10577000256C660070B5044600F05EF9204600F026
:105780005BF9204600F058F9204600F055F9204614
:1057900000F052F9204600F04FF9204600F04CF995
:1057A000204600F049F9204600F046F9204600F076
:1057B00043F9204600F040F9204600F03DF920462C
:1057C00000F03AF9204600F037F9204600F034F9AD
:1057D00004F16A000546FAF73BFD28B104F1D00256
:1057E00010A12846FAF74AFD204600F025F9284680
:1057F000FAF72EFD28B104F1D8020AA12846FAF7DB
:105800003DFD204600F018F92846FAF721FD002852
:1058100007D004F1E0022846BDE8704001A1FAF784
:105820002DBD70BD256C6600F8B5044600F004F986
:1058300004F16A000746FAF70BFD642542F2107680
:10584000D8B16A463EA13846FAF718FD0098B0FB79
:10585000F5F105FB110184F88E10B0FBF5F1B1FBF9
:10586000F5F2B0FBF6F005FB121184F88D10B0FBD9
:10587000F5F105FB110084F88C00204600F0DCF8FF
:10588000204600F0D9F83846FAF7E2FC28B104F1D6
:1058900090022CA13846FAF7F1FC204600F0CCF833
:1058A0003846FAF7D5FC28B104F1980226A138460B
:1058B000FAF7E4FC204600F0BFF83846FAF7C8FCD7
:1058C00028B104F1A0021FA13846FAF7D7FC204600
:1058D00000F0B2F83846FAF7BBFC28B104F1A80290
:1058E00019A13846FAF7CAFC204600F0A5F8204670
:1058F00000F0A2F8204600F09FF83846FAF7A8FC1E
:1059000000281BD06A460EA13846FAF7B7FC00986B
:10591000B0FBF5F105FB110184F88B10B0FBF5F13C
:10592000B1FBF5F2B0FBF6F005FB121184F88A101A
:10593000B0FBF5F105FB110084F88900F8BD00000B
:1059400025640000256C66002563000070B50446E0
:1059500000F072F8204600F06FF8204600F06CF876
:10596000204600F069F8204600F066F804F16A006D
:105970000546FAF76DFC28B104F1B8020BA12846E0
:10598000FAF77CFC204600F057F8204600F054F867
:105990002846FAF75DFC002807D004F1C00228462B
:1059A000BDE8704001A1FAF769BC70BD256C6600C6
:1059B00070B50446002084F86900204600F03CF8E9
:1059C00004F16A0014A10546FAF749FCA0B114A13C
:1059D0002846FAF744FCA0B113A12846FAF73FFC89
:1059E000A0B113A12846FAF73AFC002813D12046AB
:1059F000BDE87040FFF7BEBE2046BDE87040FFF72F
:105A000013BF2046BDE87040FFF7A0BF2046BDE8A9
:105A10007040FFF76BBE70BD4750524D4300000011
:105A20004750565447000000475047474100000088
:105A3000475047534100000030B5002480F88840AB
:105A400000F16A01031D0AE06A5490F86920521CB3
:105A500080F8692090F88820521C80F8882090F8FF
:105A60006920D25C2C2A04D01AB190F888501D2DE0
:105A7000EAD390F88820545410F8691F491C01702B
:105A800030BD30B490F868200AB924290FD0531ED5
:105A90000024622B15D2C31C0D290CD00A290AD070
:105AA000D15410F8681F491C017030BC70470121A7
:105AB00080F86810F9E7D45480F8684030BCFFF7EC
:105AC00077BF80F86840F0E7F0B502461D4BD2F88A
:105AD0000050002003EB00142668AE4207D1666830
